{
  "_format": "hh-sol-artifact-1",
  "contractName": "CardNFT",
  "sourceName": "contracts/CardNFT.sol",
  "abi": [
    {
      "inputs": [],
      "stateMutability": "nonpayable",
      "type": "constructor"
    },
    {
      "inputs": [
        {
          "internalType": "address",
          "name": "sender",
          "type": "address"
        },
        {
          "internalType": "uint256",
          "name": "tokenId",
          "type": "uint256"
        },
        {
          "internalType": "address",
          "name": "owner",
          "type": "address"
        }
      ],
      "name": "ERC721IncorrectOwner",
      "type": "error"
    },
    {
      "inputs": [
        {
          "internalType": "address",
          "name": "operator",
          "type": "address"
        },
        {
          "internalType": "uint256",
          "name": "tokenId",
          "type": "uint256"
        }
      ],
      "name": "ERC721InsufficientApproval",
      "type": "error"
    },
    {
      "inputs": [
        {
          "internalType": "address",
          "name": "approver",
          "type": "address"
        }
      ],
      "name": "ERC721InvalidApprover",
      "type": "error"
    },
    {
      "inputs": [
        {
          "internalType": "address",
          "name": "operator",
          "type": "address"
        }
      ],
      "name": "ERC721InvalidOperator",
      "type": "error"
    },
    {
      "inputs": [
        {
          "internalType": "address",
          "name": "owner",
          "type": "address"
        }
      ],
      "name": "ERC721InvalidOwner",
      "type": "error"
    },
    {
      "inputs": [
        {
          "internalType": "address",
          "name": "receiver",
          "type": "address"
        }
      ],
      "name": "ERC721InvalidReceiver",
      "type": "error"
    },
    {
      "inputs": [
        {
          "internalType": "address",
          "name": "sender",
          "type": "address"
        }
      ],
      "name": "ERC721InvalidSender",
      "type": "error"
    },
    {
      "inputs": [
        {
          "internalType": "uint256",
          "name": "tokenId",
          "type": "uint256"
        }
      ],
      "name": "ERC721NonexistentToken",
      "type": "error"
    },
    {
      "inputs": [
        {
          "internalType": "address",
          "name": "owner",
          "type": "address"
        }
      ],
      "name": "OwnableInvalidOwner",
      "type": "error"
    },
    {
      "inputs": [
        {
          "internalType": "address",
          "name": "account",
          "type": "address"
        }
      ],
      "name": "OwnableUnauthorizedAccount",
      "type": "error"
    },
    {
      "anonymous": false,
      "inputs": [
        {
          "indexed": true,
          "internalType": "address",
          "name": "owner",
          "type": "address"
        },
        {
          "indexed": true,
          "internalType": "address",
          "name": "approved",
          "type": "address"
        },
        {
          "indexed": true,
          "internalType": "uint256",
          "name": "tokenId",
          "type": "uint256"
        }
      ],
      "name": "Approval",
      "type": "event"
    },
    {
      "anonymous": false,
      "inputs": [
        {
          "indexed": true,
          "internalType": "address",
          "name": "owner",
          "type": "address"
        },
        {
          "indexed": true,
          "internalType": "address",
          "name": "operator",
          "type": "address"
        },
        {
          "indexed": false,
          "internalType": "bool",
          "name": "approved",
          "type": "bool"
        }
      ],
      "name": "ApprovalForAll",
      "type": "event"
    },
    {
      "anonymous": false,
      "inputs": [
        {
          "indexed": true,
          "internalType": "address",
          "name": "previousOwner",
          "type": "address"
        },
        {
          "indexed": true,
          "internalType": "address",
          "name": "newOwner",
          "type": "address"
        }
      ],
      "name": "OwnershipTransferred",
      "type": "event"
    },
    {
      "anonymous": false,
      "inputs": [
        {
          "indexed": true,
          "internalType": "address",
          "name": "from",
          "type": "address"
        },
        {
          "indexed": true,
          "internalType": "address",
          "name": "to",
          "type": "address"
        },
        {
          "indexed": true,
          "internalType": "uint256",
          "name": "tokenId",
          "type": "uint256"
        }
      ],
      "name": "Transfer",
      "type": "event"
    },
    {
      "inputs": [
        {
          "internalType": "address",
          "name": "to",
          "type": "address"
        },
        {
          "internalType": "uint256",
          "name": "tokenId",
          "type": "uint256"
        }
      ],
      "name": "approve",
      "outputs": [],
      "stateMutability": "nonpayable",
      "type": "function"
    },
    {
      "inputs": [
        {
          "internalType": "address",
          "name": "owner",
          "type": "address"
        }
      ],
      "name": "balanceOf",
      "outputs": [
        {
          "internalType": "uint256",
          "name": "",
          "type": "uint256"
        }
      ],
      "stateMutability": "view",
      "type": "function"
    },
    {
      "inputs": [
        {
          "internalType": "address",
          "name": "to",
          "type": "address"
        },
        {
          "internalType": "uint16[]",
          "name": "attacks",
          "type": "uint16[]"
        },
        {
          "internalType": "uint16[]",
          "name": "healths",
          "type": "uint16[]"
        },
        {
          "internalType": "uint16[]",
          "name": "speeds",
          "type": "uint16[]"
        },
        {
          "internalType": "enum CardNFT.Attribute[]",
          "name": "attrs",
          "type": "uint8[]"
        },
        {
          "internalType": "enum CardNFT.Rarity[]",
          "name": "rarities",
          "type": "uint8[]"
        },
        {
          "internalType": "string[]",
          "name": "uris",
          "type": "string[]"
        }
      ],
      "name": "bulkMint",
      "outputs": [],
      "stateMutability": "nonpayable",
      "type": "function"
    },
    {
      "inputs": [
        {
          "internalType": "uint256",
          "name": "",
          "type": "uint256"
        }
      ],
      "name": "cards",
      "outputs": [
        {
          "internalType": "uint16",
          "name": "attack",
          "type": "uint16"
        },
        {
          "internalType": "uint16",
          "name": "health",
          "type": "uint16"
        },
        {
          "internalType": "uint16",
          "name": "speed",
          "type": "uint16"
        },
        {
          "internalType": "enum CardNFT.Attribute",
          "name": "attr",
          "type": "uint8"
        },
        {
          "internalType": "enum CardNFT.Rarity",
          "name": "rarity",
          "type": "uint8"
        },
        {
          "internalType": "string",
          "name": "uri",
          "type": "string"
        }
      ],
      "stateMutability": "view",
      "type": "function"
    },
    {
      "inputs": [
        {
          "internalType": "uint256",
          "name": "tokenId",
          "type": "uint256"
        }
      ],
      "name": "getApproved",
      "outputs": [
        {
          "internalType": "address",
          "name": "",
          "type": "address"
        }
      ],
      "stateMutability": "view",
      "type": "function"
    },
    {
      "inputs": [
        {
          "internalType": "uint256",
          "name": "tokenId",
          "type": "uint256"
        }
      ],
      "name": "getCard",
      "outputs": [
        {
          "components": [
            {
              "internalType": "uint16",
              "name": "attack",
              "type": "uint16"
            },
            {
              "internalType": "uint16",
              "name": "health",
              "type": "uint16"
            },
            {
              "internalType": "uint16",
              "name": "speed",
              "type": "uint16"
            },
            {
              "internalType": "enum CardNFT.Attribute",
              "name": "attr",
              "type": "uint8"
            },
            {
              "internalType": "enum CardNFT.Rarity",
              "name": "rarity",
              "type": "uint8"
            },
            {
              "internalType": "string",
              "name": "uri",
              "type": "string"
            }
          ],
          "internalType": "struct CardNFT.Card",
          "name": "",
          "type": "tuple"
        }
      ],
      "stateMutability": "view",
      "type": "function"
    },
    {
      "inputs": [
        {
          "internalType": "address",
          "name": "owner",
          "type": "address"
        }
      ],
      "name": "getTokensOfOwner",
      "outputs": [
        {
          "internalType": "uint256[]",
          "name": "",
          "type": "uint256[]"
        }
      ],
      "stateMutability": "view",
      "type": "function"
    },
    {
      "inputs": [
        {
          "internalType": "address",
          "name": "owner",
          "type": "address"
        },
        {
          "internalType": "address",
          "name": "operator",
          "type": "address"
        }
      ],
      "name": "isApprovedForAll",
      "outputs": [
        {
          "internalType": "bool",
          "name": "",
          "type": "bool"
        }
      ],
      "stateMutability": "view",
      "type": "function"
    },
    {
      "inputs": [
        {
          "internalType": "address",
          "name": "to",
          "type": "address"
        },
        {
          "internalType": "uint16",
          "name": "attack",
          "type": "uint16"
        },
        {
          "internalType": "uint16",
          "name": "health",
          "type": "uint16"
        },
        {
          "internalType": "uint16",
          "name": "speed",
          "type": "uint16"
        },
        {
          "internalType": "enum CardNFT.Attribute",
          "name": "attr",
          "type": "uint8"
        },
        {
          "internalType": "enum CardNFT.Rarity",
          "name": "rarity",
          "type": "uint8"
        },
        {
          "internalType": "string",
          "name": "uri",
          "type": "string"
        }
      ],
      "name": "mintCard",
      "outputs": [],
      "stateMutability": "nonpayable",
      "type": "function"
    },
    {
      "inputs": [],
      "name": "name",
      "outputs": [
        {
          "internalType": "string",
          "name": "",
          "type": "string"
        }
      ],
      "stateMutability": "view",
      "type": "function"
    },
    {
      "inputs": [],
      "name": "nextId",
      "outputs": [
        {
          "internalType": "uint256",
          "name": "",
          "type": "uint256"
        }
      ],
      "stateMutability": "view",
      "type": "function"
    },
    {
      "inputs": [],
      "name": "owner",
      "outputs": [
        {
          "internalType": "address",
          "name": "",
          "type": "address"
        }
      ],
      "stateMutability": "view",
      "type": "function"
    },
    {
      "inputs": [
        {
          "internalType": "uint256",
          "name": "tokenId",
          "type": "uint256"
        }
      ],
      "name": "ownerOf",
      "outputs": [
        {
          "internalType": "address",
          "name": "",
          "type": "address"
        }
      ],
      "stateMutability": "view",
      "type": "function"
    },
    {
      "inputs": [],
      "name": "renounceOwnership",
      "outputs": [],
      "stateMutability": "nonpayable",
      "type": "function"
    },
    {
      "inputs": [
        {
          "internalType": "address",
          "name": "from",
          "type": "address"
        },
        {
          "internalType": "address",
          "name": "to",
          "type": "address"
        },
        {
          "internalType": "uint256",
          "name": "tokenId",
          "type": "uint256"
        }
      ],
      "name": "safeTransferFrom",
      "outputs": [],
      "stateMutability": "nonpayable",
      "type": "function"
    },
    {
      "inputs": [
        {
          "internalType": "address",
          "name": "from",
          "type": "address"
        },
        {
          "internalType": "address",
          "name": "to",
          "type": "address"
        },
        {
          "internalType": "uint256",
          "name": "tokenId",
          "type": "uint256"
        },
        {
          "internalType": "bytes",
          "name": "data",
          "type": "bytes"
        }
      ],
      "name": "safeTransferFrom",
      "outputs": [],
      "stateMutability": "nonpayable",
      "type": "function"
    },
    {
      "inputs": [
        {
          "internalType": "address",
          "name": "operator",
          "type": "address"
        },
        {
          "internalType": "bool",
          "name": "approved",
          "type": "bool"
        }
      ],
      "name": "setApprovalForAll",
      "outputs": [],
      "stateMutability": "nonpayable",
      "type": "function"
    },
    {
      "inputs": [
        {
          "internalType": "bytes4",
          "name": "interfaceId",
          "type": "bytes4"
        }
      ],
      "name": "supportsInterface",
      "outputs": [
        {
          "internalType": "bool",
          "name": "",
          "type": "bool"
        }
      ],
      "stateMutability": "view",
      "type": "function"
    },
    {
      "inputs": [],
      "name": "symbol",
      "outputs": [
        {
          "internalType": "string",
          "name": "",
          "type": "string"
        }
      ],
      "stateMutability": "view",
      "type": "function"
    },
    {
      "inputs": [
        {
          "internalType": "uint256",
          "name": "tokenId",
          "type": "uint256"
        }
      ],
      "name": "tokenURI",
      "outputs": [
        {
          "internalType": "string",
          "name": "",
          "type": "string"
        }
      ],
      "stateMutability": "view",
      "type": "function"
    },
    {
      "inputs": [
        {
          "internalType": "address",
          "name": "from",
          "type": "address"
        },
        {
          "internalType": "address",
          "name": "to",
          "type": "address"
        },
        {
          "internalType": "uint256",
          "name": "tokenId",
          "type": "uint256"
        }
      ],
      "name": "transferFrom",
      "outputs": [],
      "stateMutability": "nonpayable",
      "type": "function"
    },
    {
      "inputs": [
        {
          "internalType": "address",
          "name": "newOwner",
          "type": "address"
        }
      ],
      "name": "transferOwnership",
      "outputs": [],
      "stateMutability": "nonpayable",
      "type": "function"
    }
  ],
  "bytecode": "0x608034620003965760406001600160401b03828201818111848210176200038057825260078352602092661510d1d0d85c9960ca1b848201528251918383018381108282111762000380578452600492838152635443474360e01b868201528251908282116200036b576000968754926001958685811c9516801562000360575b838610146200034d578190601f95868111620002fa575b50839086831160011462000296578b926200028a575b5050600019600383901b1c191690861b1788555b8151938411620002775784548581811c911680156200026c575b828210146200025957908184869594931162000202575b50809284116001146200019a575087926200018e575b5050600019600383901b1c191690821b1790555b331562000179575060068054336001600160a01b03198216811790925591519290916001600160a01b0316907f8be0079c531659141344cd1fd0a4f28419497f9722a3daafe3b4186f6b6457e09080a3611a7990816200039c8239f35b826024925191631e4fbdf760e01b8352820152fd5b01519050388062000108565b9190859450601f198416858a52838a20938a905b828210620001e85750508411620001ce575b505050811b0190556200011c565b015160001960f88460031b161c19169055388080620001c0565b8484015186558897909501949384019390810190620001ae565b90919293508589528189208480870160051c8201928488106200024f575b9187968992969594930160051c01915b82811062000240575050620000f2565b8b815587965088910162000230565b9250819262000220565b634e487b7160e01b895260228752602489fd5b90607f1690620000db565b634e487b7160e01b885260418652602488fd5b015190503880620000ad565b8b8052848c208994509190601f1984168d5b87828210620002e35750508411620002c9575b505050811b018855620000c1565b015160001960f88460031b161c19169055388080620002bb565b8385015186558c97909501949384019301620002a8565b9091508a8052838b208680850160051c82019286861062000343575b918a91869594930160051c01915b8281106200033457505062000097565b8d81558594508a910162000324565b9250819262000316565b634e487b7160e01b8a526022885260248afd5b94607f169462000080565b604185634e487b7160e01b6000525260246000fd5b634e487b7160e01b600052604160045260246000fd5b600080fdfe608080604052600436101561001357600080fd5b60003560e01c90816301ffc9a7146111ab5750806306fdde0314611108578063081812fc146110ca578063095ea7b314610fe357806323b872dd14610fcc57806342842e0e14610f9e5780635de6dc5514610ea157806361b8ce8c14610e835780636352211e14610e5357806370a0823114610e28578063715018a614610dcb5780638da5cb5b14610da25780638dc1076814610d105780639188d31214610bdc57806395d89b4114610b11578063a22cb46514610a6c578063b88d4fde14610a01578063c87b56dd14610997578063decd043b14610504578063e985e9c5146104ae578063f2fde38b146104205763fc0135f71461011157600080fd5b3461041b5760e036600319011261041b5761012a611256565b602490813561ffff80821680920361041b576044359181831680930361041b576064359282841680940361041b5760843593600585101561041b5760a43591600583101561041b576001600160401b039260c43584811161041b573660238201121561041b5780600401359785891161041b57368b8a8401011161041b578a9461021566ff000000000000936101be611490565b6008549b6101cb8d6119a5565b6008556040519a6101db8c6112f1565b8b52602098898c0198895260408c0194855260608c01956101fb816113ee565b865260808c019761020b816113ee565b8852369201611429565b9860a08901998a528a60005260078752604060002098511660ff60381b65ffff0000000063ffff00008b54985160101b169351891b16935195610257876113ee565b610260876113ee565b5161026a816113ee565b610273816113ee565b60381b16956001600160401b0319161717179160301b1617178355600180930193518051928311610406576102a885546112b7565b601f81116103bd575b5081601f8411600114610357575092829391839260009461034c575b50501b916000199060031b1c19161790555b604051916102ec8361130c565b600083526001600160a01b03818116156103345761030a838361167b565b1661031c5761031a935033611772565b005b6040516339e3563760e11b8152600060048201528490fd5b604051633250574960e11b8152600060048201528590fd5b0151925038806102cd565b919083601f1981168760005284600020946000905b888383106103a3575050501061038a575b505050811b0190556102df565b015160001960f88460031b161c1916905538808061037d565b85870151885590960195948501948793509081019061036c565b8560005282600020601f850160051c8101918486106103fc575b601f0160051c019085905b8281106103f05750506102b1565b600081550185906103e2565b90915081906103d7565b87634e487b7160e01b60005260416004526000fd5b600080fd5b3461041b57602036600319011261041b57610439611256565b610441611490565b6001600160a01b0390811690811561049557600654826bffffffffffffffffffffffff60a01b821617600655167f8be0079c531659141344cd1fd0a4f28419497f9722a3daafe3b4186f6b6457e0600080a3005b604051631e4fbdf760e01b815260006004820152602490fd5b3461041b57604036600319011261041b576104c7611256565b6104cf61126c565b9060018060a01b03809116600052600560205260406000209116600052602052602060ff604060002054166040519015158152f35b3461041b5760e036600319011261041b5761051d611256565b6024356001600160401b03811161041b5761053c903690600401611460565b916044356001600160401b03811161041b5761055c903690600401611460565b906064356001600160401b03811161041b5761057c903690600401611460565b926084356001600160401b03811161041b5761059c903690600401611460565b91909760a4356001600160401b03811161041b576105be903690600401611460565b91909660c4356001600160401b03811161041b576105e0903690600401611460565b9590946105eb611490565b8084148061098e575b80610985575b8061097c575b80610973575b1561041b5760005b84811061061757005b80898f928f81878f93610642818c61064d8f838e61064761064261065399610642956106599e6119ca565b6119da565b9b6119ca565b986119ca565b966119ca565b3591600583101561041b576106708f8b86916119ca565b35600581101561041b578c85101561095d578460051b8c0135601e198d36030181121561041b578c01936001600160401b0385351161041b5784353603602086011361041b5766ff000000000000906106c7611490565b6008978854986106d68a6119a5565b905561072f604051976106e8896112f1565b61ffff80981689528760208a01971687528760408a01931683526060890193610710816113ee565b84526080890195610720816113ee565b86523690602081359101611429565b9560a08801968752896000526007602052604060002097511660ff60381b65ffff0000000063ffff00008a54985160101b16935160201b16935195610773876113ee565b61077c876113ee565b51610786816113ee565b61078f816113ee565b60381b16956001600160401b0319161717179160301b1617178255518051906001600160401b038211610947576107c960018401546112b7565b601f8111610900575b50602090601f8311600114610890576001929160009183610885575b5050600019600383901b1c191690821b179101555b604051916108108361130c565b600083526001600160a01b038e161561086c578d6108358260018060a01b039261167b565b166108535761084e92610849918f33611772565b6119a5565b61060e565b6040516339e3563760e11b815260006004820152602490fd5b604051633250574960e11b815260006004820152602490fd5b0151905038806107ee565b906001840160005260206000209160005b601f19851681106108e85750918391600194938594601f198116106108cf575b505050811b01910155610803565b015160001960f88460031b161c191690553880806108c1565b919260206001819286850151815501940192016108a1565b600184016000526020600020601f840160051c810160208510610940575b601f830160051c820181106109345750506107d2565b6000815560010161091e565b508061091e565b634e487b7160e01b600052604160045260246000fd5b634e487b7160e01b600052603260045260246000fd5b50868414610606565b50848414610600565b508184146105fa565b508284146105f4565b3461041b57602036600319011261041b576004356000818152600260205260409020546109ce906001600160a01b031615156119e9565b60005260076020526109fd6109e96001604060002001611348565b604051918291602083526020830190611216565b0390f35b3461041b57608036600319011261041b57610a1a611256565b610a2261126c565b90604435606435926001600160401b03841161041b573660238501121561041b57610a5a61031a943690602481600401359101611429565b92610a668383836114f5565b336118ba565b3461041b57604036600319011261041b57610a85611256565b6024359081151580920361041b576001600160a01b0316908115610af857336000526005602052604060002082600052602052604060002060ff1981541660ff83161790556040519081527f17307eab39ab6107e8899845ad3d59bd9653f200f220920489ca2b5937696c3160203392a3005b604051630b61174360e31b815260048101839052602490fd5b3461041b57600036600319011261041b5760405160006001805490610b35826112b7565b80855291818116908115610bb55750600114610b5c575b6109fd846109e981860382611327565b600081815292507fb10e2d527612073b26eecdfd717e6a320cf44b4afac2b0732d9fcbe2b7fa0cf65b828410610b9d5750505081016020016109e982610b4c565b80546020858701810191909152909301928101610b85565b60ff191660208087019190915292151560051b850190920192506109e99150839050610b4c565b3461041b5760208060031936011261041b57600435606060a0604051610c01816112f1565b60008152600085820152600060408201526000838201526000608082015201528060005260028252610c4160018060a01b036040600020541615156119e9565b600052600781526040600020906109fd60405191610c5e836112f1565b83549361ffff94858116855285838601818360101c1681528160408801918185881c168352610cbc600160ff808860301c169760608d0198610c9f816113ee565b895260381c169760808c0198610cb4816113ee565b895201611348565b9660a08a019788526040519a8b9a828c525116908a0152511660408801525116606086015251610ceb816113ee565b608085015251610cfa816113ee565b60a08401525160c08084015260e0830190611216565b3461041b57602036600319011261041b576004356000526007602052604060002080546109fd60ff8260301c1692610d51600160ff8560381c169201611348565b9060405194859461ffff908181168752818160101c16602088015260201c166040860152610d7e816113ee565b6060850152610d8c816113ee565b608084015260c060a084015260c0830190611216565b3461041b57600036600319011261041b576006546040516001600160a01b039091168152602090f35b3461041b57600036600319011261041b57610de4611490565b600680546001600160a01b031981169091556000906001600160a01b03167f8be0079c531659141344cd1fd0a4f28419497f9722a3daafe3b4186f6b6457e08280a3005b3461041b57602036600319011261041b576020610e4b610e46611256565b6114bc565b604051908152f35b3461041b57602036600319011261041b576020610e71600435611737565b6040516001600160a01b039091168152f35b3461041b57600036600319011261041b576020600854604051908152f35b3461041b5760208060031936011261041b57610ebb611256565b610ec4816114bc565b610ee6610ed082611a2c565b91610ede6040519384611327565b808352611a2c565b8184019290601f1901368437600854906000906001600160a01b0390811690825b848110610f5157878688604051928392818401908285525180915260408401929160005b828110610f3a57505050500390f35b835185528695509381019392810192600101610f2b565b806000526002885282826040600020541614610f76575b610f71906119a5565b610f07565b92855181101561095d57610f9681858a610f719460051b8a0101526119a5565b939050610f68565b3461041b5761031a610faf36611282565b9060405192610fbd8461130c565b60008452610a668383836114f5565b3461041b5761031a610fdd36611282565b916114f5565b3461041b57604036600319011261041b57610ffc611256565b60243561100881611737565b331515806110b7575b8061108a575b611072576001600160a01b039283169282918491167f8c5be1e5ebec7d5bd14f71427d1e84f3dd0314c0f7b2291e5b200ac8c7c3b925600080a4600090815260046020526040902080546001600160a01b0319169091179055005b60405163a9fbf51f60e01b8152336004820152602490fd5b5060018060a01b038116600052600560205260406000203360005260205260ff6040600020541615611017565b506001600160a01b038116331415611011565b3461041b57602036600319011261041b576004356110e781611737565b506000526004602052602060018060a01b0360406000205416604051908152f35b3461041b57600036600319011261041b5760405160008054611129816112b7565b80845290600190818116908115610bb55750600114611152576109fd846109e981860382611327565b600080805292507f290decd9548b62a8d60345a988386fc84ba6bc95484008f6362f93160ef3e5635b8284106111935750505081016020016109e982610b4c565b8054602085870181019190915290930192810161117b565b3461041b57602036600319011261041b576004359063ffffffff60e01b821680920361041b576020916380ac58cd60e01b8114908115611205575b81156111f4575b5015158152f35b6301ffc9a760e01b149050836111ed565b635b5e139f60e01b811491506111e6565b919082519283825260005b848110611242575050826000602080949584010152601f8019910116010190565b602081830181015184830182015201611221565b600435906001600160a01b038216820361041b57565b602435906001600160a01b038216820361041b57565b606090600319011261041b576001600160a01b0390600435828116810361041b5791602435908116810361041b579060443590565b90600182811c921680156112e7575b60208310146112d157565b634e487b7160e01b600052602260045260246000fd5b91607f16916112c6565b60c081019081106001600160401b0382111761094757604052565b602081019081106001600160401b0382111761094757604052565b90601f801991011681019081106001600160401b0382111761094757604052565b906040519182600082549261135c846112b7565b9081845260019485811690816000146113cb5750600114611388575b505061138692500383611327565b565b9093915060005260209081600020936000915b8183106113b357505061138693508201013880611378565b8554888401850152948501948794509183019161139b565b91505061138694506020925060ff191682840152151560051b8201013880611378565b600511156113f857565b634e487b7160e01b600052602160045260246000fd5b6001600160401b03811161094757601f01601f191660200190565b9291926114358261140e565b916114436040519384611327565b82948184528183011161041b578281602093846000960137010152565b9181601f8401121561041b578235916001600160401b03831161041b576020808501948460051b01011161041b57565b6006546001600160a01b031633036114a457565b60405163118cdaa760e01b8152336004820152602490fd5b6001600160a01b031680156114dc57600052600360205260406000205490565b6040516322718ad960e21b815260006004820152602490fd5b6001600160a01b03918216929091831561086c576000928284528260209560028752604096848888205416968791331515806115e5575b509060027fddf252ad1be2c89b69c2b068fc378daa952ba7f163c4a11628f55a4df523b3ef92846115b2575b858352600381528b8320805460010190558683525289812080546001600160a01b0319168517905580a416928383036115915750505050565b6064945051926364283d7b60e01b8452600484015260248301526044820152fd5b600087815260046020526040902080546001600160a01b0319169055848352600381528b83208054600019019055611558565b9193945091508061163a575b156116015785929187913861152c565b87868861161e576024915190637e27328960e01b82526004820152fd5b604491519063177e802f60e01b82523360048301526024820152fd5b50338714801561165f575b806115f157508582526004815233858984205416146115f1565b5086825260058152878220338352815260ff8883205416611645565b6000828152600260205260408120546001600160a01b03908116939284917fddf252ad1be2c89b69c2b068fc378daa952ba7f163c4a11628f55a4df523b3ef9183611702575b1692836116ea575b84815260026020526040812080546001600160a01b0319168517905580a490565b838152600360205260408120600181540190556116c9565b600086815260046020526040902080546001600160a01b031916905583855260036020526040852080546000190190556116c1565b6000818152600260205260409020546001600160a01b031690811561175a575090565b60249060405190637e27328960e01b82526004820152fd5b90929192803b611783575b50505050565b906117d29293949160018060a01b038091169460405191630a85bd0160e11b93848452166004830152600096876024840152604483015260806064830152818060209687936084830190611216565b038189895af1869181611876575b50611841575050503d600014611838573d6117fa8161140e565b906118086040519283611327565b81528093823d92013e5b8251928361183357604051633250574960e11b815260048101849052602490fd5b019050fd5b60609250611812565b919450915063ffffffff60e01b160361185e57503880808061177d565b60249060405190633250574960e11b82526004820152fd5b9091508481813d83116118b3575b61188e8183611327565b810103126118af57516001600160e01b0319811681036118af5790386117e0565b8680fd5b503d611884565b90939192833b6118cc575b5050505050565b604051630a85bd0160e11b8082526001600160a01b039384166004830152958316602482015260448101919091526080606482015294921692602092918590611919906084830190611216565b039483816000978189895af1869181611965575b50611947575050503d600014611838573d6117fa8161140e565b919450915063ffffffff60e01b160361185e575038808080806118c5565b9091508481813d831161199e575b61197d8183611327565b810103126118af57516001600160e01b0319811681036118af57903861192d565b503d611973565b60001981146119b45760010190565b634e487b7160e01b600052601160045260246000fd5b919081101561095d5760051b0190565b3561ffff8116810361041b5790565b156119f057565b60405162461bcd60e51b8152602060048201526014602482015273151bdad95b88191bd95cc81b9bdd08195e1a5cdd60621b6044820152606490fd5b6001600160401b0381116109475760051b6020019056fea264697066735822122034df13172574f8b8fa418405fe4d32cdbed4aec8d15113adec365cc90503b04664736f6c63430008140033",
  "linkReferences": {},
  "deployedLinkReferences": {}
}