{
  "_format": "hh-sol-artifact-1",
  "contractName": "GameLogic",
  "sourceName": "contracts/GameLogic.sol",
  "abi": [
    {
      "inputs": [
        {
          "internalType": "address",
          "name": "cardAddress",
          "type": "address"
        }
      ],
      "stateMutability": "nonpayable",
      "type": "constructor"
    },
    {
      "inputs": [
        {
          "internalType": "address",
          "name": "owner",
          "type": "address"
        }
      ],
      "name": "OwnableInvalidOwner",
      "type": "error"
    },
    {
      "inputs": [
        {
          "internalType": "address",
          "name": "account",
          "type": "address"
        }
      ],
      "name": "OwnableUnauthorizedAccount",
      "type": "error"
    },
    {
      "anonymous": false,
      "inputs": [
        {
          "indexed": true,
          "internalType": "uint256",
          "name": "battleId",
          "type": "uint256"
        },
        {
          "indexed": true,
          "internalType": "address",
          "name": "p1",
          "type": "address"
        },
        {
          "indexed": true,
          "internalType": "address",
          "name": "p2",
          "type": "address"
        }
      ],
      "name": "BattleCreated",
      "type": "event"
    },
    {
      "anonymous": false,
      "inputs": [
        {
          "indexed": true,
          "internalType": "uint256",
          "name": "battleId",
          "type": "uint256"
        },
        {
          "indexed": false,
          "internalType": "address",
          "name": "winner",
          "type": "address"
        },
        {
          "indexed": false,
          "internalType": "address",
          "name": "loser",
          "type": "address"
        },
        {
          "indexed": false,
          "internalType": "uint256",
          "name": "totalSteps",
          "type": "uint256"
        }
      ],
      "name": "BattleResolved",
      "type": "event"
    },
    {
      "anonymous": false,
      "inputs": [
        {
          "indexed": true,
          "internalType": "uint256",
          "name": "battleId",
          "type": "uint256"
        },
        {
          "indexed": false,
          "internalType": "uint256",
          "name": "p1CardIndex",
          "type": "uint256"
        },
        {
          "indexed": false,
          "internalType": "uint256",
          "name": "p2CardIndex",
          "type": "uint256"
        },
        {
          "indexed": false,
          "internalType": "uint256",
          "name": "p1HealthAfter",
          "type": "uint256"
        },
        {
          "indexed": false,
          "internalType": "uint256",
          "name": "p2HealthAfter",
          "type": "uint256"
        },
        {
          "indexed": false,
          "internalType": "uint256",
          "name": "damage",
          "type": "uint256"
        },
        {
          "indexed": false,
          "internalType": "uint256",
          "name": "attackSide",
          "type": "uint256"
        }
      ],
      "name": "BattleStep",
      "type": "event"
    },
    {
      "anonymous": false,
      "inputs": [
        {
          "indexed": true,
          "internalType": "address",
          "name": "previousOwner",
          "type": "address"
        },
        {
          "indexed": true,
          "internalType": "address",
          "name": "newOwner",
          "type": "address"
        }
      ],
      "name": "OwnershipTransferred",
      "type": "event"
    },
    {
      "inputs": [
        {
          "internalType": "uint256",
          "name": "",
          "type": "uint256"
        }
      ],
      "name": "battles",
      "outputs": [
        {
          "internalType": "address",
          "name": "challenger",
          "type": "address"
        },
        {
          "internalType": "address",
          "name": "opponent",
          "type": "address"
        },
        {
          "internalType": "bool",
          "name": "challengerReady",
          "type": "bool"
        },
        {
          "internalType": "bool",
          "name": "opponentReady",
          "type": "bool"
        },
        {
          "internalType": "enum GameLogic.BattleState",
          "name": "state",
          "type": "uint8"
        },
        {
          "internalType": "uint256",
          "name": "id",
          "type": "uint256"
        }
      ],
      "stateMutability": "view",
      "type": "function"
    },
    {
      "inputs": [],
      "name": "card",
      "outputs": [
        {
          "internalType": "contract CardNFT",
          "name": "",
          "type": "address"
        }
      ],
      "stateMutability": "view",
      "type": "function"
    },
    {
      "inputs": [
        {
          "internalType": "address",
          "name": "opponent",
          "type": "address"
        }
      ],
      "name": "createBattle",
      "outputs": [
        {
          "internalType": "uint256",
          "name": "",
          "type": "uint256"
        }
      ],
      "stateMutability": "nonpayable",
      "type": "function"
    },
    {
      "inputs": [
        {
          "internalType": "uint256",
          "name": "battleId",
          "type": "uint256"
        },
        {
          "internalType": "uint8",
          "name": "side",
          "type": "uint8"
        }
      ],
      "name": "getBattleSideAddress",
      "outputs": [
        {
          "internalType": "address",
          "name": "",
          "type": "address"
        }
      ],
      "stateMutability": "view",
      "type": "function"
    },
    {
      "inputs": [
        {
          "internalType": "uint256",
          "name": "battleId",
          "type": "uint256"
        },
        {
          "internalType": "uint8",
          "name": "side",
          "type": "uint8"
        },
        {
          "internalType": "uint8",
          "name": "index",
          "type": "uint8"
        }
      ],
      "name": "getCardIdOfSide",
      "outputs": [
        {
          "internalType": "uint256",
          "name": "",
          "type": "uint256"
        }
      ],
      "stateMutability": "view",
      "type": "function"
    },
    {
      "inputs": [
        {
          "internalType": "uint256",
          "name": "battleId",
          "type": "uint256"
        },
        {
          "internalType": "uint256[3]",
          "name": "selected",
          "type": "uint256[3]"
        }
      ],
      "name": "joinBattle",
      "outputs": [],
      "stateMutability": "nonpayable",
      "type": "function"
    },
    {
      "inputs": [],
      "name": "nextBattle",
      "outputs": [
        {
          "internalType": "uint256",
          "name": "",
          "type": "uint256"
        }
      ],
      "stateMutability": "view",
      "type": "function"
    },
    {
      "inputs": [],
      "name": "owner",
      "outputs": [
        {
          "internalType": "address",
          "name": "",
          "type": "address"
        }
      ],
      "stateMutability": "view",
      "type": "function"
    },
    {
      "inputs": [
        {
          "internalType": "uint256[3]",
          "name": "deck",
          "type": "uint256[3]"
        }
      ],
      "name": "registerForBattle",
      "outputs": [],
      "stateMutability": "nonpayable",
      "type": "function"
    },
    {
      "inputs": [],
      "name": "renounceOwnership",
      "outputs": [],
      "stateMutability": "nonpayable",
      "type": "function"
    },
    {
      "inputs": [
        {
          "internalType": "uint256",
          "name": "battleId",
          "type": "uint256"
        }
      ],
      "name": "resolveBattle",
      "outputs": [],
      "stateMutability": "nonpayable",
      "type": "function"
    },
    {
      "inputs": [
        {
          "internalType": "address",
          "name": "newOwner",
          "type": "address"
        }
      ],
      "name": "transferOwnership",
      "outputs": [],
      "stateMutability": "nonpayable",
      "type": "function"
    },
    {
      "inputs": [
        {
          "internalType": "uint256",
          "name": "",
          "type": "uint256"
        }
      ],
      "name": "waitingDeck",
      "outputs": [
        {
          "internalType": "uint256",
          "name": "",
          "type": "uint256"
        }
      ],
      "stateMutability": "view",
      "type": "function"
    },
    {
      "inputs": [],
      "name": "waitingPlayer",
      "outputs": [
        {
          "internalType": "address",
          "name": "",
          "type": "address"
        }
      ],
      "stateMutability": "view",
      "type": "function"
    }
  ],
  "bytecode": "0x6080346100c657601f61194d38819003918201601f19168301916001600160401b038311848410176100cb578084926020946040528339810103126100c657516001600160a01b0390818116908190036100c65733156100ad5760005460018060a01b0319903382821617600055604051933391167f8be0079c531659141344cd1fd0a4f28419497f9722a3daafe3b4186f6b6457e0600080a3600154161760015561186b90816100e28239f35b604051631e4fbdf760e01b815260006004820152602490fd5b600080fd5b634e487b7160e01b600052604160045260246000fdfe608060408181526004908136101561001657600080fd5b600092833560e01c908163339bc187146109125750806357a171c81461089b578063606d2e9614610808578063715018a6146107ae5780638c288dc61461078f5780638cb782141461074f5780638da5cb5b146107275780639d369d43146106ff5780639ec8f8aa146106d2578063d93705a5146105aa578063da14cd2f1461056e578063df3f7b7814610333578063e5508b261461014e5763f2fde38b146100be57600080fd5b3461014a57602036600319011261014a576001600160a01b03823581811693919290849003610146576100ef610977565b831561013057505082546001600160a01b0319811683178455167f8be0079c531659141344cd1fd0a4f28419497f9722a3daafe3b4186f6b6457e08380a380f35b51631e4fbdf760e01b8152908101849052602490fd5b8480fd5b8280fd5b503461014a57608036600319011261014a573660841161014a5781358352600291602083815282852093600885019460ff865460101c169360039485811015610320578015908115610315575b50156103115760018281015490966001600160a01b039291831633148015610305575b156103015787548316918a5b888110610281575050505081541633146000146102475760249285885b868110610233575050505050505060ff198254161781555b805460ff811680610226575b610213578280f35b62ff000019166201000017905538808280f35b5060ff8160081c1661020b565b8286359601958582860101550186906101e7565b9050602491865b84811061026d5750505050505061010061ff00198254161781556101ff565b83358382016005015592810192850161024e565b82516331a9108f60e11b8152888160248460051b8101358683015281885afa9081156102f7578d916102ca575b5085339116036102c6576102c1906109a3565b6101ca565b8b80fd5b6102ea9150893d8b116102f0575b6102e28183610a43565b810190610a65565b386102ae565b503d6102d8565b84513d8f823e3d90fd5b8980fd5b508284541633146101be565b8780fd5b60019150143861019b565b634e487b7160e01b895260218252602489fd5b503461014a57606036600319011261014a5760649136831161056a576001805490936001600160a01b039390918416865b600381106104c85750508254841691826103b157505081546001600160a01b03191633178255509050825b6003811061039d5750505080f35b82906020833593019281600501550161038f565b33831461049657506003938454916103c8836109a3565b86558288526020906002825288206001600160601b0360a01b94858254161781556103f560028201610a84565b600896878201928960ff19855416178455898301338882541617905587908a8c5b8481106104815750505050506201010090846009845492015562ffff00191617905583549133918316907f1a3dc8ed478dab603018a746e90296b10ce7fb11afd5e4aee1feb326ea8bd3bd8980a416905560055b8181106104775750505080f35b838155820161046a565b82843594019360058288010155018b90610416565b815162461bcd60e51b8152602081860152600f60248201526e416c72656164792077616974696e6760881b6044820152fd5b82516331a9108f60e11b81528160051b86013586820152602060249181818481885afa908115610560578b91610543575b50883391160361051357505061050e906109a3565b610364565b600d8692889287519362461bcd60e51b85528401528201526c139bdd081e5bdd5c8818d85c99609a1b6044820152fd5b61055a9150823d84116102f0576102e28183610a43565b386104f9565b86513d8d823e3d90fd5b8380fd5b5082346105a757816003193601126105a7575061059660209261058f610962565b9035610b7b565b90516001600160a01b039091168152f35b80fd5b503461014a57602036600319011261014a57813590818452600260205280842090600882019360ff855460101c169060038210156106bf5750600103610146578160ff60016106197f6a2f70f9cd37cba9c79b58d9ae7fa9c626add25f1b9ac66c368f9efff49341d895610f0a565b9391905016146000146106915761067b9060018060a01b039361065361064c600587600188015416978754169601610beb565b8587610c2d565b516001600160a01b039384168152939092166020840152604083019190915281906060820190565b0390a25b805462ff000019166202000017905580f35b6106b79060018060a01b039361065361064c600287875416976001880154169601610beb565b0390a261067f565b634e487b7160e01b875260219052602486fd5b8382346106fb57816003193601126106fb5760015490516001600160a01b039091168152602090f35b5080fd5b50903461014a578260031936011261014a575490516001600160a01b03909116815260209150f35b8382346106fb57816003193601126106fb57905490516001600160a01b039091168152602090f35b50903461014a57606036600319011261014a5761076a610962565b906044359360ff851685036105a75750926107889160209435610abd565b9051908152f35b8382346106fb57816003193601126106fb576020906003549051908152f35b83346105a757806003193601126105a7576107c7610977565b80546001600160a01b03198116825581906001600160a01b03167f8be0079c531659141344cd1fd0a4f28419497f9722a3daafe3b4186f6b6457e08280a380f35b508290346106fb5760203660031901126106fb5782358252600260205280822060018060a01b039260ff8483541694600184015416936008840154906009838360101c16950154958151978852602088015282821615159087015260081c16151560608501526003821015610888575060c09350608083015260a0820152f35b634e487b7160e01b815260218552602490fd5b509190346106fb5760203660031901126106fb57356001600160a01b03811692908390036106fb57600860209382600354946108d6866109a3565b6003558581526002875220906001600160601b0360a01b90338284541617835560018301918254161790550162ff000019815416905551908152f35b8490843461014a57602036600319011261014a5735600381101561014a5760209250600501548152f35b600382101561094c570190600090565b634e487b7160e01b600052603260045260246000fd5b6024359060ff8216820361097257565b600080fd5b6000546001600160a01b0316330361098b57565b60405163118cdaa760e01b8152336004820152602490fd5b60001981146109b25760010190565b634e487b7160e01b600052601160045260246000fd5b90600381101561094c5760051b0190565b60c0810190811067ffffffffffffffff8211176109f557604052565b634e487b7160e01b600052604160045260246000fd5b6080810190811067ffffffffffffffff8211176109f557604052565b6060810190811067ffffffffffffffff8211176109f557604052565b90601f8019910116810190811067ffffffffffffffff8211176109f557604052565b9081602091031261097257516001600160a01b03811681036109725790565b60058114610aba576005908154906000915b60038310610aa45750505050565b6001809194019283549481840155019192610a96565b50565b919091600360ff83161015610b4157600052600260205260ff604060002092168015610b3457600114610b1e5760405162461bcd60e51b815260206004820152600c60248201526b496e76616c6964207369646560a01b6044820152606490fd5b6005610b2a920161093c565b90549060031b1c90565b506002610b2a920161093c565b60405162461bcd60e51b8152602060048201526012602482015271496e646578206f7574206f662072616e676560701b6044820152606490fd5b600052600260205260ff604060002091168015610bdd57600114610bcd5760405162461bcd60e51b815260206004820152600c60248201526b496e76616c6964207369646560a01b6044820152606490fd5b600101546001600160a01b031690565b50546001600160a01b031690565b60405191906000835b60038210610c0a57505050610c0882610a27565b565b6001602081928554815201930191019091610bf4565b919082039182116109b257565b909160001943014381116109b257604051602080820192428452406040830152606082019084916000905b60038210610cfd5750505050610c8392918160a060039352610c79816109d9565b51902006906109c8565b516001546001600160a01b0316803b1561097257604051632142170760e11b81526001600160a01b03938416600482015293909216602484015260448301526000908290606490829084905af18015610cf157610cdd5750565b67ffffffffffffffff81116109f557604052565b6040513d6000823e3d90fd5b82806001928651815201940191019092610c58565b60405190610d1f826109d9565b606060a083600081526000602082015260006040820152600083820152600060808201520152565b604090815191610d5683610a27565b829160005b606080821015610d9157906020916000855191610d7783610a0b565b818352818584015281878401528201528187015201610d5b565b505091925050565b519061ffff8216820361097257565b906020808383031261097257825167ffffffffffffffff9384821161097257019260c0848403126109725760405193610de0856109d9565b610de981610d99565b8552610df6838201610d99565b83860152610e0660408201610d99565b6040860152606081015160058110156109725760608601526080810151600581101561097257608086015260a081015190828211610972570183601f820112156109725780519182116109f55760405193610e6a601f8401601f1916850186610a43565b8285528383830101116109725760005b828110610e93575050906000918301015260a082015290565b8181018401518582018501528301610e7a565b516005811015610eb35790565b634e487b7160e01b600052602160045260246000fd5b6005821015610eb35752565b906000905b60038210610ee757505050565b6001602081928554815201930191019091610eda565b80156109b2576000190190565b90610f13610d12565b50610f1c610d12565b50610f25610d47565b90610f2e610d47565b60015490936001600160a01b039091169260005b60038082101561111e57610f59826002860161093c565b905490821b1c906040805180926348c4698960e11b90818352600495868401526000838c60249586915afa94851561111357918b93918a9695936000966110f1575b509082600092610faf8b6005809b0161093c565b9054911b1c918551968793849283528b8301525afa9283156110e6576000936110c3575b5061ffff9060209082828701511683875116848689015116606080990151918a8310156110af579061101e929188519461100c86610a0b565b85528685015287840152888301610ec9565b6110288a8c6109c8565b52611033898b6109c8565b508282860151169786848751169486880151169601519788101561109c57505091611097979695939161107c959382519761106d89610a0b565b88528701528501528301610ec9565b61108682896109c8565b5261109181886109c8565b506109a3565b610f42565b602190634e487b7160e01b600052526000fd5b8460218d634e487b7160e01b600052526000fd5b6110df91933d8091833e6110d78183610a43565b810190610da8565b9138610fd3565b82513d6000823e3d90fd5b61110a849160009493983d8091833e6110d78183610a43565b96919250610f9b565b84513d6000823e3d90fd5b5050909250600393849060001943014381116109b25785546001870154906040519160208301934084526001600160601b0319809260601b16604084015260601b1660548201526111756068820160028901610ed5565b61118560c8820160058901610ed5565b6101088152610140810181811067ffffffffffffffff8211176109f557604052519020946000945b8715158061155a575b8061154f575b15611504576111cb8386611563565b976080891661139357600360405160208101908a8252896040820152604160f81b6060820152604181526111fe81610a0b565b519020065b61ffff61121082876109c8565b51511661122b57600181018091116109b25760039006611203565b94607f87929a989398169061127761ffff602061124885876109c8565b51015116611262606061125b86886109c8565b5101610ea6565b611271606061125b8c8c6109c8565b9161164d565b9061ffff61128589896109c8565b515116821061134d5761130c949392600080516020611816833981519152926112bd60c09360006112b68d8d6109c8565b5152610efd565b995b61ffff6112d18460098c0154986109c8565b51511661ffff6112e1838d6109c8565b515116916040519485526020850152604084015260608301526080820152600060a0820152a26109a3565b9485151580611342575b156111ad5795604051602081019182528660408201526040815261133981610a27565b519020956111ad565b506032860615611316565b9661130c949392828261ffff611381600080516020611816833981519152968261137960c0988f6109c8565b515116610c20565b1661138c828c6109c8565b51526112bf565b939060036040999493995160208101908a8252896040820152602160f91b6060820152604181526113c381610a0b565b519020065b61ffff6113d582896109c8565b5151166113f057600181018091116109b257600390066113c8565b90969194989293986114338a611424606061125b607f61ffff60206114188d848916906109c8565b5101511694168a6109c8565b611271606061125b878d6109c8565b9061ffff611441848a6109c8565b51511682106114c65760c08389936114726000805160206118168339815191529460006112b661130c9a99896109c8565b9d5b61ffff6114868460098c0154986109c8565b515116607f61ffff61149a8483168e6109c8565b51511692604051958652166020850152604084015260608301526080820152600160a0820152a26109a3565b9960c083836000805160206118168339815191529361ffff6114f28d978261137961130c9c9b8b6109c8565b166114fd84886109c8565b5152611474565b96509250509291921561153057600260036115219306910161093c565b90549060031b1c916002929190565b600560036115409306910161093c565b90549060031b1c916001929190565b506103e886106111bc565b508315156111b6565b600090819260019283815b600381106115885750505050506115855760801790565b90565b61ffff8061159683886109c8565b515116151580611634575b611610575b806115b183876109c8565b5151161515806115f7575b6115d0575b506115cb906109a3565b61156e565b92509450945060406115e285846109c8565b5101511660ff8416946115cb600095906115c1565b508381604061160685896109c8565b51015116116115bc565b95509550905083604061162387866109c8565b510151169060ff86169581956115a6565b5083816040611643858a6109c8565b51015116116115a1565b909161ffff82169261165f828261169e565b611681579061166d9161175f565b611675575090565b617fff915060011c1690565b50506201fffe9060011b1690808204600214901517156109b25790565b9060059081831015610eb35782158061174d575b6117455760019283811480611735575b61170c576002811480611724575b61170c576003811480611712575b61170c5760041491826116f8575b50506115855750600090565b908092501015610eb35760021438806116ec565b50505090565b5082821015610eb357600482146116de565b5082821015610eb3578382146116d0565b5082821015610eb35781156116c2565b505050600190565b5081811015610eb357600381146116b2565b9060059182811015610eb357801580611803575b6117455760018114806117f1575b6117455760028114806117df575b6117455760038114806117cf575b6117455760041491826117bb575b50506117b657600090565b600190565b908092501015610eb35760031438806117ab565b5082821015610eb357811561179d565b5082821015610eb3576004821461178f565b5082821015610eb35760028214611781565b5082821015610eb3576001821461177356fe1fe1e976b6d307a4856d48224631371850572ed44068f34eabfd775bd9bb4d70a2646970667358221220d3c8c8c788ea4cc7a9a230c4da58eff93dde957cf9e033a685d89abaa243d70464736f6c63430008140033",
  "linkReferences": {},
  "deployedLinkReferences": {}
}