{
  "_format": "hh-sol-artifact-1",
  "contractName": "GameLogic",
  "sourceName": "contracts/GameLogic.sol",
  "abi": [
    {
      "inputs": [
        {
          "internalType": "address",
          "name": "cardAddress",
          "type": "address"
        }
      ],
      "stateMutability": "nonpayable",
      "type": "constructor"
    },
    {
      "inputs": [
        {
          "internalType": "address",
          "name": "owner",
          "type": "address"
        }
      ],
      "name": "OwnableInvalidOwner",
      "type": "error"
    },
    {
      "inputs": [
        {
          "internalType": "address",
          "name": "account",
          "type": "address"
        }
      ],
      "name": "OwnableUnauthorizedAccount",
      "type": "error"
    },
    {
      "anonymous": false,
      "inputs": [
        {
          "indexed": true,
          "internalType": "uint256",
          "name": "battleId",
          "type": "uint256"
        },
        {
          "indexed": true,
          "internalType": "address",
          "name": "p1",
          "type": "address"
        },
        {
          "indexed": true,
          "internalType": "address",
          "name": "p2",
          "type": "address"
        }
      ],
      "name": "BattleCreated",
      "type": "event"
    },
    {
      "anonymous": false,
      "inputs": [
        {
          "indexed": true,
          "internalType": "uint256",
          "name": "battleId",
          "type": "uint256"
        },
        {
          "indexed": false,
          "internalType": "address",
          "name": "winner",
          "type": "address"
        },
        {
          "indexed": false,
          "internalType": "address",
          "name": "loser",
          "type": "address"
        }
      ],
      "name": "BattleResolved",
      "type": "event"
    },
    {
      "anonymous": false,
      "inputs": [
        {
          "indexed": true,
          "internalType": "uint256",
          "name": "battleId",
          "type": "uint256"
        },
        {
          "indexed": false,
          "internalType": "uint256",
          "name": "p1CardIndex",
          "type": "uint256"
        },
        {
          "indexed": false,
          "internalType": "uint256",
          "name": "p2CardIndex",
          "type": "uint256"
        },
        {
          "indexed": false,
          "internalType": "uint256",
          "name": "p1HealthAfter",
          "type": "uint256"
        },
        {
          "indexed": false,
          "internalType": "uint256",
          "name": "p2HealthAfter",
          "type": "uint256"
        },
        {
          "indexed": false,
          "internalType": "uint256",
          "name": "damage",
          "type": "uint256"
        },
        {
          "indexed": false,
          "internalType": "uint256",
          "name": "attackSide",
          "type": "uint256"
        }
      ],
      "name": "BattleStep",
      "type": "event"
    },
    {
      "anonymous": false,
      "inputs": [
        {
          "indexed": true,
          "internalType": "address",
          "name": "previousOwner",
          "type": "address"
        },
        {
          "indexed": true,
          "internalType": "address",
          "name": "newOwner",
          "type": "address"
        }
      ],
      "name": "OwnershipTransferred",
      "type": "event"
    },
    {
      "inputs": [
        {
          "internalType": "uint256",
          "name": "",
          "type": "uint256"
        }
      ],
      "name": "battles",
      "outputs": [
        {
          "internalType": "address",
          "name": "challenger",
          "type": "address"
        },
        {
          "internalType": "address",
          "name": "opponent",
          "type": "address"
        },
        {
          "internalType": "bool",
          "name": "challengerReady",
          "type": "bool"
        },
        {
          "internalType": "bool",
          "name": "opponentReady",
          "type": "bool"
        },
        {
          "internalType": "enum GameLogic.BattleState",
          "name": "state",
          "type": "uint8"
        },
        {
          "internalType": "uint256",
          "name": "id",
          "type": "uint256"
        }
      ],
      "stateMutability": "view",
      "type": "function"
    },
    {
      "inputs": [],
      "name": "card",
      "outputs": [
        {
          "internalType": "contract CardNFT",
          "name": "",
          "type": "address"
        }
      ],
      "stateMutability": "view",
      "type": "function"
    },
    {
      "inputs": [
        {
          "internalType": "address",
          "name": "opponent",
          "type": "address"
        }
      ],
      "name": "createBattle",
      "outputs": [
        {
          "internalType": "uint256",
          "name": "",
          "type": "uint256"
        }
      ],
      "stateMutability": "nonpayable",
      "type": "function"
    },
    {
      "inputs": [
        {
          "internalType": "uint256",
          "name": "battleId",
          "type": "uint256"
        },
        {
          "internalType": "uint8",
          "name": "side",
          "type": "uint8"
        }
      ],
      "name": "getBattleSideAddress",
      "outputs": [
        {
          "internalType": "address",
          "name": "",
          "type": "address"
        }
      ],
      "stateMutability": "view",
      "type": "function"
    },
    {
      "inputs": [
        {
          "internalType": "uint256",
          "name": "battleId",
          "type": "uint256"
        },
        {
          "internalType": "uint8",
          "name": "side",
          "type": "uint8"
        },
        {
          "internalType": "uint8",
          "name": "index",
          "type": "uint8"
        }
      ],
      "name": "getCardIdOfSide",
      "outputs": [
        {
          "internalType": "uint256",
          "name": "",
          "type": "uint256"
        }
      ],
      "stateMutability": "view",
      "type": "function"
    },
    {
      "inputs": [
        {
          "internalType": "uint256",
          "name": "battleId",
          "type": "uint256"
        },
        {
          "internalType": "uint256[3]",
          "name": "selected",
          "type": "uint256[3]"
        }
      ],
      "name": "joinBattle",
      "outputs": [],
      "stateMutability": "nonpayable",
      "type": "function"
    },
    {
      "inputs": [],
      "name": "nextBattle",
      "outputs": [
        {
          "internalType": "uint256",
          "name": "",
          "type": "uint256"
        }
      ],
      "stateMutability": "view",
      "type": "function"
    },
    {
      "inputs": [],
      "name": "owner",
      "outputs": [
        {
          "internalType": "address",
          "name": "",
          "type": "address"
        }
      ],
      "stateMutability": "view",
      "type": "function"
    },
    {
      "inputs": [
        {
          "internalType": "uint256[3]",
          "name": "deck",
          "type": "uint256[3]"
        }
      ],
      "name": "registerForBattle",
      "outputs": [],
      "stateMutability": "nonpayable",
      "type": "function"
    },
    {
      "inputs": [],
      "name": "renounceOwnership",
      "outputs": [],
      "stateMutability": "nonpayable",
      "type": "function"
    },
    {
      "inputs": [
        {
          "internalType": "uint256",
          "name": "battleId",
          "type": "uint256"
        }
      ],
      "name": "resolveBattle",
      "outputs": [],
      "stateMutability": "nonpayable",
      "type": "function"
    },
    {
      "inputs": [
        {
          "internalType": "address",
          "name": "newOwner",
          "type": "address"
        }
      ],
      "name": "transferOwnership",
      "outputs": [],
      "stateMutability": "nonpayable",
      "type": "function"
    },
    {
      "inputs": [
        {
          "internalType": "uint256",
          "name": "",
          "type": "uint256"
        }
      ],
      "name": "waitingDeck",
      "outputs": [
        {
          "internalType": "uint256",
          "name": "",
          "type": "uint256"
        }
      ],
      "stateMutability": "view",
      "type": "function"
    },
    {
      "inputs": [],
      "name": "waitingPlayer",
      "outputs": [
        {
          "internalType": "address",
          "name": "",
          "type": "address"
        }
      ],
      "stateMutability": "view",
      "type": "function"
    }
  ],
  "bytecode": "0x6080346100c657601f611c5638819003918201601f19168301916001600160401b038311848410176100cb578084926020946040528339810103126100c657516001600160a01b0390818116908190036100c65733156100ad5760005460018060a01b0319903382821617600055604051933391167f8be0079c531659141344cd1fd0a4f28419497f9722a3daafe3b4186f6b6457e0600080a36001541617600155611b7490816100e28239f35b604051631e4fbdf760e01b815260006004820152602490fd5b600080fd5b634e487b7160e01b600052604160045260246000fdfe608060408181526004908136101561001657600080fd5b600092833560e01c908163339bc187146109025750806357a171c81461088b578063606d2e96146107f8578063715018a61461079e5780638c288dc61461077f5780638cb782141461073f5780638da5cb5b146107175780639d369d43146106ef5780639ec8f8aa146106c2578063d93705a5146105aa578063da14cd2f1461056e578063df3f7b7814610333578063e5508b261461014e5763f2fde38b146100be57600080fd5b3461014a57602036600319011261014a576001600160a01b03823581811693919290849003610146576100ef610967565b831561013057505082546001600160a01b0319811683178455167f8be0079c531659141344cd1fd0a4f28419497f9722a3daafe3b4186f6b6457e08380a380f35b51631e4fbdf760e01b8152908101849052602490fd5b8480fd5b8280fd5b503461014a57608036600319011261014a573660841161014a5781358352600291602083815282852093600885019460ff865460101c169360039485811015610320578015908115610315575b50156103115760018281015490966001600160a01b039291831633148015610305575b156103015787548316918a5b888110610281575050505081541633146000146102475760249285885b868110610233575050505050505060ff198254161781555b805460ff811680610226575b610213578280f35b62ff000019166201000017905538808280f35b5060ff8160081c1661020b565b8286359601958582860101550186906101e7565b9050602491865b84811061026d5750505050505061010061ff00198254161781556101ff565b83358382016005015592810192850161024e565b82516331a9108f60e11b8152888160248460051b8101358683015281885afa9081156102f7578d916102ca575b5085339116036102c6576102c190610993565b6101ca565b8b80fd5b6102ea9150893d8b116102f0575b6102e28183610a4f565b810190610a71565b386102ae565b503d6102d8565b84513d8f823e3d90fd5b8980fd5b508284541633146101be565b8780fd5b60019150143861019b565b634e487b7160e01b895260218252602489fd5b503461014a57606036600319011261014a5760649136831161056a576001805490936001600160a01b039390918416865b600381106104c85750508254841691826103b157505081546001600160a01b03191633178255509050825b6003811061039d5750505080f35b82906020833593019281600501550161038f565b33831461049657506003938454916103c883610993565b86558288526020906002825288206001600160601b0360a01b94858254161781556103f560028201610aa3565b600896878201928960ff19855416178455898301338882541617905587908a8c5b8481106104815750505050506201010090846009845492015562ffff00191617905583549133918316907f1a3dc8ed478dab603018a746e90296b10ce7fb11afd5e4aee1feb326ea8bd3bd8980a416905560055b8181106104775750505080f35b838155820161046a565b82843594019360058288010155018b90610416565b815162461bcd60e51b8152602081860152600f60248201526e416c72656164792077616974696e6760881b6044820152fd5b82516331a9108f60e11b81528160051b86013586820152602060249181818481885afa908115610560578b91610543575b50883391160361051357505061050e90610993565b610364565b600d8692889287519362461bcd60e51b85528401528201526c139bdd081e5bdd5c8818d85c99609a1b6044820152fd5b61055a9150823d84116102f0576102e28183610a4f565b386104f9565b86513d8d823e3d90fd5b8380fd5b5082346105a757816003193601126105a7575061059660209261058f610952565b9035610b9a565b90516001600160a01b039091168152f35b80fd5b503461014a57602036600319011261014a57813590818452600260205280842090600882019360ff855460101c169060038210156106af57506001036101465781600160ff6106197f491737229322101f55b0cf2abc6064f82e5b05e3a32e0d22e5921e71df83a37195610f29565b5016036106825761066c60018060a01b039261064c610645600586600187015416968654169501610c0a565b8486610c4c565b516001600160a01b03928316815292909116602083015281906040820190565b0390a25b805462ff000019166202000017905580f35b6106a760018060a01b039261064c610645600286865416966001870154169501610c0a565b0390a2610670565b634e487b7160e01b875260219052602486fd5b8382346106eb57816003193601126106eb5760015490516001600160a01b039091168152602090f35b5080fd5b50903461014a578260031936011261014a575490516001600160a01b03909116815260209150f35b8382346106eb57816003193601126106eb57905490516001600160a01b039091168152602090f35b50903461014a57606036600319011261014a5761075a610952565b906044359360ff851685036105a75750926107789160209435610adc565b9051908152f35b8382346106eb57816003193601126106eb576020906003549051908152f35b83346105a757806003193601126105a7576107b7610967565b80546001600160a01b03198116825581906001600160a01b03167f8be0079c531659141344cd1fd0a4f28419497f9722a3daafe3b4186f6b6457e08280a380f35b508290346106eb5760203660031901126106eb5782358252600260205280822060018060a01b039260ff8483541694600184015416936008840154906009838360101c16950154958151978852602088015282821615159087015260081c16151560608501526003821015610878575060c09350608083015260a0820152f35b634e487b7160e01b815260218552602490fd5b509190346106eb5760203660031901126106eb57356001600160a01b03811692908390036106eb57600860209382600354946108c686610993565b6003558581526002875220906001600160601b0360a01b90338284541617835560018301918254161790550162ff000019815416905551908152f35b8490843461014a57602036600319011261014a5735600381101561014a5760209250600501548152f35b600382101561093c570190600090565b634e487b7160e01b600052603260045260246000fd5b6024359060ff8216820361096257565b600080fd5b6000546001600160a01b0316330361097b57565b60405163118cdaa760e01b8152336004820152602490fd5b60001981146109a25760010190565b634e487b7160e01b600052601160045260246000fd5b90600381101561093c5760051b0190565b60c0810190811067ffffffffffffffff8211176109e557604052565b634e487b7160e01b600052604160045260246000fd5b60a0810190811067ffffffffffffffff8211176109e557604052565b6060810190811067ffffffffffffffff8211176109e557604052565b6080810190811067ffffffffffffffff8211176109e557604052565b90601f8019910116810190811067ffffffffffffffff8211176109e557604052565b9081602091031261096257516001600160a01b03811681036109625790565b818102929181159184041417156109a257565b60058114610ad9576005908154906000915b60038310610ac35750505050565b6001809194019283549481840155019192610ab5565b50565b919091600360ff83161015610b6057600052600260205260ff604060002092168015610b5357600114610b3d5760405162461bcd60e51b815260206004820152600c60248201526b496e76616c6964207369646560a01b6044820152606490fd5b6005610b49920161092c565b90549060031b1c90565b506002610b49920161092c565b60405162461bcd60e51b8152602060048201526012602482015271496e646578206f7574206f662072616e676560701b6044820152606490fd5b600052600260205260ff604060002091168015610bfc57600114610bec5760405162461bcd60e51b815260206004820152600c60248201526b496e76616c6964207369646560a01b6044820152606490fd5b600101546001600160a01b031690565b50546001600160a01b031690565b60405191906000835b60038210610c2957505050610c2782610a17565b565b6001602081928554815201930191019091610c13565b919082039182116109a257565b909160001943014381116109a257604051602080820192428452406040830152606082019084916000905b60038210610d155750505050610ca292918160a060039352610c98816109c9565b51902006906109b8565b5160015490916001600160a01b0391821690813b156109625760006064928195856040519889978896632142170760e11b885216600487015216602485015260448401525af18015610d0957610cf55750565b67ffffffffffffffff81116109e557604052565b6040513d6000823e3d90fd5b82806001928651815201940191019092610c77565b60405190610d37826109c9565b606060a083600081526000602082015260006040820152600083820152600060808201520152565b604090815191610d6e83610a17565b829160005b606080821015610db057906020916000855191610d8f836109fb565b81835281858401528187840152820152600060808201528187015201610d73565b505091925050565b519061ffff8216820361096257565b906020808383031261096257825167ffffffffffffffff9384821161096257019260c0848403126109625760405193610dff856109c9565b610e0881610db8565b8552610e15838201610db8565b83860152610e2560408201610db8565b6040860152606081015160058110156109625760608601526080810151600581101561096257608086015260a081015190828211610962570183601f820112156109625780519182116109e55760405193610e89601f8401601f1916850186610a4f565b8285528383830101116109625760005b828110610eb2575050906000918301015260a082015290565b8181018401518582018501528301610e99565b516005811015610ed25790565b634e487b7160e01b600052602160045260246000fd5b6005821015610ed25752565b906000905b60038210610f0657505050565b6001602081928554815201930191019091610ef9565b80156109a2576000190190565b610f31610d2a565b50610f3a610d2a565b50610f43610d5f565b91610f4c610d5f565b60015490936001600160a01b039091169160005b60038082101561113257610f77826002880161092c565b905490821b1c604051916348c4698960e11b91828452600484015260249060008483818b5afa938415610d0957600094611117575b50610fba8560058b0161092c565b9054911b1c604051928352600483015260008282818a5afa918215610d09576000926110f4575b5060209261ffff84820151169261ffff82511661ffff6040840151166060809401519160058310156110df5790611033929160405197611020896109fb565b8852888801526040870152838601610ee8565b608093600085820152611046878a6109b8565b5261105186896109b8565b5061ffff85820151169461ffff825116908361ffff6040850151169301519460058610156110cb5750926110a892600095926110c699989795604051986110978a6109fb565b895288015260408701528501610ee8565b8201526110b582896109b8565b526110c081886109b8565b50610993565b610f60565b634e487b7160e01b60009081526021600452fd5b85634e487b7160e01b60005260216004526000fd5b61111091923d8091833e6111088183610a4f565b810190610dc7565b9038610fe1565b61112b91943d8091833e6111088183610a4f565b9238610fac565b505091509291926003806000194301944386116109a257865494600188015496600289019760058a01976040519160208301934084526001600160601b0319809260601b16604084015260601b166054820152611192606882018a610ef4565b61119f60c8820189610ef4565b6101088152610140810181811067ffffffffffffffff8211176109e5576040999396989952519020966000965b80151580611584575b80611579575b15611532576111ea8488611609565b607f811696906080166113c957600360405160208101908c82528b6040820152604160f81b60608201526041815261122181610a33565b519020065b61ffff61123382886109b8565b51511661124e57600181018091116109a25760039006611226565b9196889099919493998c61129961ffff602061126a85876109b8565b510151168961129360606112868a61128d836112868b8d6109b8565b5101610ec5565b946109b8565b91611953565b61ffff6112a6878b6109b8565b5151168110611376578290868a9b6112be828d6109b8565b51600090526112cc90610f1c565b9b61ffff61130261132d9a826112f9600080516020611b1f8339815191529a600960c09b5b01549c6109b8565b515116936109b8565b515116916040519485526020850152604084015260608301526080820152600060a0820152a2610993565b968715158061136b575b611344575b9091946111cc565b97604051602081019182528860408201526040815261136281610a17565b5190209761133c565b506032880615611337565b9182868a61ffff61130283826112f988600961132d9f9b846113b7600080516020611b1f8339815191529f60c09f6113af84918e6109b8565b515116610c3f565b166113c2878b6109b8565b51526112f1565b600360409b9796929b5160208101908c82528b6040820152602160f91b6060820152604181526113f881610a33565b519020065b61ffff61140a828b6109b8565b51511661142557600181018091116109a257600390066113fd565b879b89919a9295949a97939761ffff916114688961145960606112868a88602061144f83886109b8565b51015116946109b8565b6112936060611286878a6109b8565b908361147484876109b8565b51511682106114ef5790868a85859461148d868a6109b8565b516000905261149b90610f1c565b9e61132d9a600080516020611b1f833981519152986112f960c09960096114c49501549c6109b8565b515116916040519485526020850152604084015260608301526080820152600160a0820152a2610993565b9a90868a856114c461132d9a826112f9896009819a8e6113c2600080516020611b1f8339815191529f9e60c09f61152b8f826113af85886109b8565b16926109b8565b5094509450509094501561155c5750600361154e92069061092c565b90549060031b1c9060029190565b9050600361156b92069061092c565b90549060031b1c9060019190565b506103e888106111db565b508415156111d5565b61ffff9081166103e71901919082116109a257565b9061ffff8092166103e8039182116109a257565b61ffff90811660001901919082116109a257565b91909161ffff808094169116019182116109a257565b9061ffff8091169182156115f357160490565b634e487b7160e01b600052601260045260246000fd5b906000925b8380600019815b600381106118c45750865b600381106118315750506117ee5750620f4240845b600381106116f15750845b6003811061164f57505061160e565b6116819061ffff8061166183896109b8565b5151166116c7575b8061167483886109b8565b5151166116865750610993565b611640565b806116a1816040611697868b6109b8565b5101511686610a90565b16906116be60806116b2858a6109b8565b510192828451166115ca565b169052386110c0565b806116d8816040611697868c6109b8565b16816116e960806116b2868c6109b8565b169052611669565b61ffff8086838261170282846109b8565b5151166117a0575b8792915061171890836109b8565b515116611730575b505061172b90610993565b611635565b828261177261176d61175483608061174b87611787996109b8565b510151166115a2565b838b61176360409788926109b8565b51015116906115ca565b6115b6565b9161177d868a6109b8565b51015116906115e0565b16828110611796575b84611720565b915061172b611790565b826117c961176d6117ba83608061174b876117d4996109b8565b838d61176360409788926109b8565b9161177d878c6109b8565b168381106117e6575b5080868361170a565b9250386117dd565b90935091608091828416611822575061180b9060ff8416906109b8565b510161ffff61181c8183511661158d565b16905290565b61180b9150607f8416906109b8565b61ffff8061183f83896109b8565b5151161515806118a8575b61185e575b5061185990610993565b611620565b60809083818361186e868c6109b8565b510151161361187e575b5061184f565b9080955082945060ff935061189383896109b8565b51015116931716916118596001929038611878565b506103e88160806118b9858b6109b8565b51015116101561184a565b61ffff806118d2838a6109b8565b515116151580611937575b6118f1575b506118ec90610993565b611615565b6080838282611900868d6109b8565b5101511613611910575b506118e2565b92509250925061192083876109b8565b510151169060ff8116916118ec600192903861190a565b506103e8816080611948858c6109b8565b5101511610156118dd565b909161ffff82169261196582826119a4565b611987579061197391611a68565b61197b575090565b617fff915060011c1690565b50506201fffe9060011b1690808204600214901517156109a25790565b9060059081831015610ed257821580611a56575b611a4e5760019283811480611a3e575b611a15576002811480611a2d575b611a15576003811480611a1b575b611a15576004149182611a01575b50506119fe5750600090565b90565b908092501015610ed25760021438806119f2565b50505090565b5082821015610ed257600482146119e4565b5082821015610ed2578382146119d6565b5082821015610ed25781156119c8565b505050600190565b5081811015610ed257600381146119b8565b9060059182811015610ed257801580611b0c575b611a4e576001811480611afa575b611a4e576002811480611ae8575b611a4e576003811480611ad8575b611a4e576004149182611ac4575b5050611abf57600090565b600190565b908092501015610ed2576003143880611ab4565b5082821015610ed2578115611aa6565b5082821015610ed25760048214611a98565b5082821015610ed25760028214611a8a565b5082821015610ed25760018214611a7c56fe1fe1e976b6d307a4856d48224631371850572ed44068f34eabfd775bd9bb4d70a2646970667358221220802bb000c004b53fc42941e59f892993135fb5d7574d486a3ef9f087f49c077964736f6c63430008140033",
  "linkReferences": {},
  "deployedLinkReferences": {}
}