{
  "_format": "hh-sol-artifact-1",
  "contractName": "GameLogic",
  "sourceName": "contracts/GameLogic.sol",
  "abi": [
    {
      "inputs": [
        {
          "internalType": "address",
          "name": "cardAddress",
          "type": "address"
        }
      ],
      "stateMutability": "nonpayable",
      "type": "constructor"
    },
    {
      "inputs": [
        {
          "internalType": "address",
          "name": "owner",
          "type": "address"
        }
      ],
      "name": "OwnableInvalidOwner",
      "type": "error"
    },
    {
      "inputs": [
        {
          "internalType": "address",
          "name": "account",
          "type": "address"
        }
      ],
      "name": "OwnableUnauthorizedAccount",
      "type": "error"
    },
    {
      "anonymous": false,
      "inputs": [
        {
          "indexed": true,
          "internalType": "uint256",
          "name": "battleId",
          "type": "uint256"
        },
        {
          "indexed": true,
          "internalType": "address",
          "name": "p1",
          "type": "address"
        },
        {
          "indexed": true,
          "internalType": "address",
          "name": "p2",
          "type": "address"
        }
      ],
      "name": "BattleCreated",
      "type": "event"
    },
    {
      "anonymous": false,
      "inputs": [
        {
          "indexed": true,
          "internalType": "uint256",
          "name": "battleId",
          "type": "uint256"
        },
        {
          "indexed": false,
          "internalType": "address",
          "name": "winner",
          "type": "address"
        },
        {
          "indexed": false,
          "internalType": "address",
          "name": "loser",
          "type": "address"
        }
      ],
      "name": "BattleResolved",
      "type": "event"
    },
    {
      "anonymous": false,
      "inputs": [
        {
          "indexed": true,
          "internalType": "address",
          "name": "previousOwner",
          "type": "address"
        },
        {
          "indexed": true,
          "internalType": "address",
          "name": "newOwner",
          "type": "address"
        }
      ],
      "name": "OwnershipTransferred",
      "type": "event"
    },
    {
      "inputs": [
        {
          "internalType": "uint256",
          "name": "",
          "type": "uint256"
        }
      ],
      "name": "battles",
      "outputs": [
        {
          "internalType": "address",
          "name": "challenger",
          "type": "address"
        },
        {
          "internalType": "address",
          "name": "opponent",
          "type": "address"
        },
        {
          "internalType": "bool",
          "name": "challengerReady",
          "type": "bool"
        },
        {
          "internalType": "bool",
          "name": "opponentReady",
          "type": "bool"
        },
        {
          "internalType": "enum GameLogic.BattleState",
          "name": "state",
          "type": "uint8"
        }
      ],
      "stateMutability": "view",
      "type": "function"
    },
    {
      "inputs": [],
      "name": "card",
      "outputs": [
        {
          "internalType": "contract CardNFT",
          "name": "",
          "type": "address"
        }
      ],
      "stateMutability": "view",
      "type": "function"
    },
    {
      "inputs": [
        {
          "internalType": "address",
          "name": "opponent",
          "type": "address"
        }
      ],
      "name": "createBattle",
      "outputs": [
        {
          "internalType": "uint256",
          "name": "",
          "type": "uint256"
        }
      ],
      "stateMutability": "nonpayable",
      "type": "function"
    },
    {
      "inputs": [
        {
          "internalType": "uint256",
          "name": "battleId",
          "type": "uint256"
        },
        {
          "internalType": "uint256[3]",
          "name": "selected",
          "type": "uint256[3]"
        }
      ],
      "name": "joinBattle",
      "outputs": [],
      "stateMutability": "nonpayable",
      "type": "function"
    },
    {
      "inputs": [],
      "name": "nextBattle",
      "outputs": [
        {
          "internalType": "uint256",
          "name": "",
          "type": "uint256"
        }
      ],
      "stateMutability": "view",
      "type": "function"
    },
    {
      "inputs": [],
      "name": "owner",
      "outputs": [
        {
          "internalType": "address",
          "name": "",
          "type": "address"
        }
      ],
      "stateMutability": "view",
      "type": "function"
    },
    {
      "inputs": [
        {
          "internalType": "uint256[3]",
          "name": "deck",
          "type": "uint256[3]"
        }
      ],
      "name": "registerForBattle",
      "outputs": [],
      "stateMutability": "nonpayable",
      "type": "function"
    },
    {
      "inputs": [],
      "name": "renounceOwnership",
      "outputs": [],
      "stateMutability": "nonpayable",
      "type": "function"
    },
    {
      "inputs": [
        {
          "internalType": "uint256",
          "name": "battleId",
          "type": "uint256"
        }
      ],
      "name": "resolveBattle",
      "outputs": [],
      "stateMutability": "nonpayable",
      "type": "function"
    },
    {
      "inputs": [
        {
          "internalType": "address",
          "name": "newOwner",
          "type": "address"
        }
      ],
      "name": "transferOwnership",
      "outputs": [],
      "stateMutability": "nonpayable",
      "type": "function"
    },
    {
      "inputs": [
        {
          "internalType": "uint256",
          "name": "",
          "type": "uint256"
        }
      ],
      "name": "waitingDeck",
      "outputs": [
        {
          "internalType": "uint256",
          "name": "",
          "type": "uint256"
        }
      ],
      "stateMutability": "view",
      "type": "function"
    },
    {
      "inputs": [],
      "name": "waitingPlayer",
      "outputs": [
        {
          "internalType": "address",
          "name": "",
          "type": "address"
        }
      ],
      "stateMutability": "view",
      "type": "function"
    }
  ],
  "bytecode": "0x6080346100c657601f61165e38819003918201601f19168301916001600160401b038311848410176100cb578084926020946040528339810103126100c657516001600160a01b0390818116908190036100c65733156100ad5760005460018060a01b0319903382821617600055604051933391167f8be0079c531659141344cd1fd0a4f28419497f9722a3daafe3b4186f6b6457e0600080a3600154161760015561157c90816100e28239f35b604051631e4fbdf760e01b815260006004820152602490fd5b600080fd5b634e487b7160e01b600052604160045260246000fdfe608060408181526004908136101561001657600080fd5b600092833560e01c908163339bc187146108615750806357a171c8146107ea578063606d2e9614610763578063715018a6146107065780638c288dc6146106e75780638da5cb5b146106bf5780639d369d43146106975780639ec8f8aa1461066a578063d93705a514610552578063df3f7b781461031d578063e5508b26146101385763f2fde38b146100a857600080fd5b34610134576020366003190112610134576001600160a01b03823581811693919290849003610130576100d96108b1565b831561011a57505082546001600160a01b0319811683178455167f8be0079c531659141344cd1fd0a4f28419497f9722a3daafe3b4186f6b6457e08380a380f35b51631e4fbdf760e01b8152908101849052602490fd5b8480fd5b8280fd5b503461013457608036600319011261013457366084116101345781358352600291602083815282852093600885019460ff865460101c16936003948581101561030a5780159081156102ff575b50156102fb5760018281015490966001600160a01b0392918316331480156102ef575b156102eb5787548316918a5b88811061026b575050505081541633146000146102315760249285885b86811061021d575050505050505060ff198254161781555b805460ff811680610210575b6101fd578280f35b62ff000019166201000017905538808280f35b5060ff8160081c166101f5565b8286359601958582860101550186906101d1565b9050602491865b8481106102575750505050505061010061ff00198254161781556101e9565b833583820160050155928101928501610238565b82516331a9108f60e11b8152888160248460051b8101358683015281885afa9081156102e1578d916102b4575b5085339116036102b0576102ab906108dd565b6101b4565b8b80fd5b6102d49150893d8b116102da575b6102cc818361097d565b81019061099f565b38610298565b503d6102c2565b84513d8f823e3d90fd5b8980fd5b508284541633146101a8565b8780fd5b600191501438610185565b634e487b7160e01b895260218252602489fd5b50346101345760603660031901126101345760649136831161054e57600180549093906001600160a01b03908116865b600381106104ac57505082548116918261039a57505081546001600160a01b03191633178255509050825b600381106103865750505080f35b829060208335930192816005015501610378565b33831461047a57506003908154916103b1836108dd565b8155828852602095600287528820906001600160601b0360a01b94858354161782556103df600283016109c3565b600896878301928960ff19855416178455898101338882541617905587918a8c5b858110610465575050505050506201010062ffff001982541617905583549133918316907f1a3dc8ed478dab603018a746e90296b10ce7fb11afd5e4aee1feb326ea8bd3bd8980a416905560055b81811061045b5750505080f35b838155820161044e565b82853595019460058286010155018b90610400565b845162461bcd60e51b8152602081860152600f60248201526e416c72656164792077616974696e6760881b6044820152fd5b85516331a9108f60e11b81528160051b86013586820152602060249181818481885afa908115610544578b91610527575b5085339116036104f75750506104f2906108dd565b61034d565b600d869288928a519362461bcd60e51b85528401528201526c139bdd081e5bdd5c8818d85c99609a1b6044820152fd5b61053e9150823d84116102da576102cc818361097d565b386104dd565b89513d8d823e3d90fd5b8380fd5b503461013457602036600319011261013457813590818452600260205280842090600882019360ff855460101c1690600382101561065757506001036101305781600160ff6105c17f491737229322101f55b0cf2abc6064f82e5b05e3a32e0d22e5921e71df83a37195610d14565b50160361062a5761061460018060a01b03926105f46105ed6005866001870154169686541695016109fc565b8486610a3e565b516001600160a01b03928316815292909116602083015281906040820190565b0390a25b805462ff000019166202000017905580f35b61064f60018060a01b03926105f46105ed6002868654169660018701541695016109fc565b0390a2610618565b634e487b7160e01b875260219052602486fd5b83823461069357816003193601126106935760015490516001600160a01b039091168152602090f35b5080fd5b5090346101345782600319360112610134575490516001600160a01b03909116815260209150f35b838234610693578160031936011261069357905490516001600160a01b039091168152602090f35b8382346106935781600319360112610693576020906003549051908152f35b833461076057806003193601126107605761071f6108b1565b80546001600160a01b03198116825581906001600160a01b03167f8be0079c531659141344cd1fd0a4f28419497f9722a3daafe3b4186f6b6457e08280a380f35b80fd5b508234610760576020366003190112610760578235815260026020528181209060ff60018060a01b03936008858554169560018601541694015490828260101c16948151968752602087015282821615159086015260081c161515606084015260038210156107d75760a083836080820152f35b634e487b7160e01b815260218452602490fd5b5091903461069357602036600319011261069357356001600160a01b03811692908390036106935760086020938260035494610825866108dd565b6003558581526002875220906001600160601b0360a01b90338284541617835560018301918254161790550162ff000019815416905551908152f35b84908434610134576020366003190112610134573560038110156101345760209250600501548152f35b600382101561089b570190600090565b634e487b7160e01b600052603260045260246000fd5b6000546001600160a01b031633036108c557565b60405163118cdaa760e01b8152336004820152602490fd5b60001981146108ec5760010190565b634e487b7160e01b600052601160045260246000fd5b90600381101561089b5760051b0190565b60c0810190811067ffffffffffffffff82111761092f57604052565b634e487b7160e01b600052604160045260246000fd5b6080810190811067ffffffffffffffff82111761092f57604052565b6060810190811067ffffffffffffffff82111761092f57604052565b90601f8019910116810190811067ffffffffffffffff82111761092f57604052565b908160209103126109be57516001600160a01b03811681036109be5790565b600080fd5b600581146109f9576005908154906000915b600383106109e35750505050565b60018091940192835494818401550191926109d5565b50565b60405191906000835b60038210610a1b57505050610a1982610961565b565b6001602081928554815201930191019091610a05565b919082039182116108ec57565b909160001943014381116108ec57604051602080820192428452406040830152606082019084916000905b60038210610b075750505050610a9492918160a060039352610a8a81610913565b5190200690610902565b5160015490916001600160a01b0391821690813b156109be5760006064928195856040519889978896632142170760e11b885216600487015216602485015260448401525af18015610afb57610ae75750565b67ffffffffffffffff811161092f57604052565b6040513d6000823e3d90fd5b82806001928651815201940191019092610a69565b60405190610b2982610913565b606060a083600081526000602082015260006040820152600083820152600060808201520152565b604090815191610b6083610961565b829160005b606080821015610b9b57906020916000855191610b8183610945565b818352818584015281878401528201528187015201610b65565b505091925050565b519061ffff821682036109be57565b90602080838303126109be57825167ffffffffffffffff938482116109be57019260c0848403126109be5760405193610bea85610913565b610bf381610ba3565b8552610c00838201610ba3565b83860152610c1060408201610ba3565b6040860152606081015160058110156109be576060860152608081015160058110156109be57608086015260a0810151908282116109be570183601f820112156109be57805191821161092f5760405193610c74601f8401601f191685018661097d565b8285528383830101116109be5760005b828110610c9d575050906000918301015260a082015290565b8181018401518582018501528301610c84565b516005811015610cbd5790565b634e487b7160e01b600052602160045260246000fd5b6005821015610cbd5752565b906000905b60038210610cf157505050565b6001602081928554815201930191019091610ce4565b80156108ec576000190190565b610d1c610b1c565b50610d25610b1c565b50610d2e610b51565b610d36610b51565b600180549091906001600160a01b03166000835b6110b6575b505060038060001943014381116108ec578654958588015491600560028a01990195604092835192602095868501914082526001600160601b0319908160609d8e1b16878701528c1b166054850152610dab606885018d610cdf565b610db860c885018a610cdf565b610108845261014084019380851067ffffffffffffffff86111761092f5785948b9897969c94939c52519020996000965b610e33575b5050505050505015610e18575050906003610e0a92069061088b565b90549060031b1c9060029190565b909392506003610e2992069061088b565b90549060031b1c90565b90919293949596861515806110ad575b806110a2575b1561109c5789610e598484611294565b607f811690608016610fb65760038d88518a81019182528c8a820152604160f81b8982015260418152610e8b81610945565b51902006915b610f88575b610ed661ffff91610ec288610ebb858d610eb0868c610902565b510151169389610902565b5101610cb0565b610ed089610ebb878b610902565b9161137e565b81610ee18488610902565b5151168110610f58575050610f0c916000610eff610f069387610902565b5152610d07565b976108dd565b9283151580610f4d575b610f28575b9295949392919089610de9565b899a85518781019182528587820152868152610f4381610961565b5190209a50610f1b565b506032840615610f16565b81610f79610f81928594610f71610f0c989f978b610902565b515116610a31565b169186610902565b51526108dd565b61ffff610f958387610902565b515116610fb1578b82018092116108ec5760038c920691610e91565b610e96565b60038d889b9a949b518a81019182528b8a820152602160f91b8982015260418152610fe081610945565b51902006915b61106e575b61101e61ffff9161101088610ebb858d611005868d610902565b51015116938a610902565b610ed089610ebb878a610902565b816110298487610902565b515116811061104d575050610f0c916000610eff6110479386610902565b966108dd565b81611066610f81928594610f71610f0c989e978a610902565b169185610902565b61ffff61107b8386610902565b515116611097578b82018092116108ec5760038c920691610fe6565b610feb565b96610dee565b506103e88810610e49565b50801515610e43565b60038082101561128e576110cd826002890161088b565b905490821b1c60408051906348c4698960e11b908183526004938484015260249460008487818b5afa938415611283578c889160009661125f575b50906005611116920161088b565b9054911b1c81519283528483015260008286818a5afa91821561125457600092611231575b5061ffff60208181860151168286511683858801511660608098015191600583101561121d578f90611190938d9361118b928a519761117989610945565b885288880152898701528a8601610cd3565b610902565b5261119b888d610902565b5081818501511696858386511693858701511695015196600588101561120a57505092826112039795926111e8958d9b9a989551976111d989610945565b88528701528501528301610cd3565b6111f28287610902565b526111fd8186610902565b506108dd565b9091610d4a565b602190634e487b7160e01b600052526000fd5b8a60218b634e487b7160e01b600052526000fd5b61124d91923d8091833e611245818361097d565b810190610bb2565b903861113b565b50513d6000823e3d90fd5b61127a6005916111169493983d8091833e611245818361097d565b96919250611108565b82513d6000823e3d90fd5b50610d4f565b600090819260019283815b600381106112b95750505050506112b65760801790565b90565b61ffff806112c78388610902565b515116151580611365575b611341575b806112e28387610902565b515116151580611328575b611301575b506112fc906108dd565b61129f565b92509450945060406113138584610902565b5101511660ff8416946112fc600095906112f2565b50838160406113378589610902565b51015116116112ed565b9550955090508360406113548786610902565b510151169060ff86169581956112d7565b5083816040611374858a610902565b51015116116112d2565b909161ffff82169261139082826113cf565b6113b2579061139e91611490565b6113a6575090565b617fff915060011c1690565b50506201fffe9060011b1690808204600214901517156108ec5790565b9060059081831015610cbd5782158061147e575b6114765760019283811480611466575b61143d576002811480611455575b61143d576003811480611443575b61143d576004149182611429575b50506112b65750600090565b908092501015610cbd57600214388061141d565b50505090565b5082821015610cbd576004821461140f565b5082821015610cbd57838214611401565b5082821015610cbd5781156113f3565b505050600190565b5081811015610cbd57600381146113e3565b9060059182811015610cbd57801580611534575b611476576001811480611522575b611476576002811480611510575b611476576003811480611500575b6114765760041491826114ec575b50506114e757600090565b600190565b908092501015610cbd5760031438806114dc565b5082821015610cbd5781156114ce565b5082821015610cbd57600482146114c0565b5082821015610cbd57600282146114b2565b5082821015610cbd57600182146114a456fea264697066735822122098ee261b999b7115af646dac8abfa3c37a35d4808ce4b4a364940107e70f5b9a64736f6c63430008140033",
  "linkReferences": {},
  "deployedLinkReferences": {}
}